:040000008031D32850
:10000800803120007F08D7008B1A0B1D73286C08DD
:10001800003A003003190130D5005508EC00690892
:10002800A0006A08A1006B08A2008631472680312B
:1000380020002008D5005508DE005E088F31AE2765
:10004800803120002E08F8002F08F9003008FA0047
:100058008F315D27803178082000B8007908B90011
:100068007A08BA006908B5006A08B6006B08B700D4
:100078008131CB21803120003508C8003608C900FD
:100088003708CA000030C5002030C6004130C7001C
:1000980084316324803120004508A0004608A1006F
:1000A8004708A20086314726803120002008D50065
:1000B8005508DA00EC08031D63285E0864285A080E
:1000C800D500D6015508D8005608D9006C08D500C7
:1000D8005508F00058088F31832780310B11210013
:1000E800111FCF282000111FCF280030C500A030D5
:1000F800C6004030C7000030B5007F30B60043303E
:10010800B70021001C088F31AE27803120002E084F
:10011800B8002F08B9003008BA008531172580319A
:1001280020003508C8003608C9003708CA008431DD
:100138006324803120004508DB004608DC004708BE
:10014800DD0021001D1DB52820005B082100D4001A
:1001580020005C082100D50020005D082100D600A1
:10016800BC2820005B08E9005C08EA005D08EB0099
:10017800003021001D1D01302000D500D50DD50D02
:1001880021001D0820005506FB39550621009D0059
:100198009D142000111320005708FF0009008F311B
:1001A800982F21003808BE003908BF003A08C0005F
:1001B80003103F0D400DC1004108C4003B08BE00BC
:1001C8003C08BF003D08C00003103F0D400DC100B2
:1001D8004108C30044080319FD28430844020318D2
:1001E80004294403FF3A4307BE0019303E02031CAA
:1001F80004293B08B8003C08B9003D08BA000800CB
:100208004308031908004408430203181329430349
:10021800FF3A4407BE0019303E02031808000630B2
:10022800BE003E08C200BA1BC217BD1B4217B91751
:10023800FF30B805FF30B9050030BA05BC17FF30EC
:10024800BB05FF30BC050030BD0543084402031858
:100258004F290130BB35BC0DBD0D890B2E2901304E
:10026800C3024308440603194A290130C20242085E
:10027800073903194A292D290130BA36B90CB80CA7
:10028800890B41290130BE003E08C40744084306D3
:1002980003197429402944084302031874290130BA
:1002A800B835B90DBA0D890B54290130C402430879
:1002B8004406031970290130C2024208073903199C
:1002C800702953290130BD36BC0CBB0C890B67293A
:1002D8000130BE003E08C30744084306031D6629D3
:1002E800C21F8629FF30B806FF30B906FF30BA06AC
:1002F8000130B807003003180130B907003003187F
:100308000130BA07421F9829FF30BB06FF30BC06F0
:10031800FF30BD060130BB07003003180130BC07B1
:10032800003003180130BD07C2013808BB0739087F
:10033800BC3D3A08BD3DBD1FB329FF30BB06FF30A9
:10034800BC06FF30BD060130BB0700300318013082
:10035800BC07003003180130BD07C201C20A3B08C0
:10036800A0003C08A1003D08A2004408BE003E08C9
:10037800A3004208BF003F08A4008631CE26210012
:100388002008B8002108B9002208BA000800200097
:100398003508BB003608BC003708BD0003103C0D0B
:1003A8003D0DBE003E08C1003808BB003908BC003E
:1003B8003A08BD0003103C0D3D0DBE003E08C000CC
:1003C80041080319F329400841020318FA29410397
:1003D800FF3A4007BB0019303B02031CFA293808D2
:1003E800B5003908B6003A08B700080040080319F4
:1003F8000800410840020318092A4003FF3A410750
:10040800BB0019303B02031808000630BB003B084C
:10041800BF00B71BBF17BA1B3F17B617FF30B5058C
:10042800FF30B6050030B705B917FF30B805FF3003
:10043800B9050030BA05400841020318452A0130C1
:10044800B835B90DBA0D890B242A0130C00240080D
:1004580041060319402A0130BF023F080739031932
:10046800402A232A0130B736B60CB50C890B372A37
:100478000130BB003B08C1074108400603196A2A3E
:10048800362A4108400203186A2A0130B535B60DEC
:10049800B70D890B4A2A0130C102400841060319E9
:1004A800662A0130BF023F0807390319662A492A1C
:1004B8000130BA36B90CB80C890B5D2A0130BB0083
:1004C8003B08C00741084006031D5C2ABF1F7C2A61
:1004D800FF30B506FF30B606FF30B7060130B50766
:1004E800003003180130B607003003180130B70791
:1004F8003F1F8E2AFF30B806FF30B906FF30BA0614
:100508000130B807003003180130B907003003186C
:100518000130BA07BF013508B8073608B93D3708B2
:10052800BA3DBA1FA92AFF30B806FF30B906FF3016
:10053800BA060130B807003003180130B907003097
:1005480003180130BA07BF01BF0A3808F00039089C
:10055800F1003A08F2004108BB003B08F3003F08ED
:10056800BC003C08F40087312F2770082000B50034
:100578007108B6007208B70008008731CB278231AE
:100588008F317827823100302100C8000030C9003F
:100598000030CA000030CE000030CF000030D0005C
:1005A8000030D1000030D2000030D30021005408C0
:1005B800B8005508B9005608BA002000690821009B
:1005C800A00020006A082100A10020006B0821007B
:1005D800A2008F316527823121002008BB00210845
:1005E800BC002208BD008031D520823121003808A6
:1005F800CB003908CC003A08CD004B08AB004C08BA
:10060800AC004D08AD000030A8000030A9003F3014
:10061800AA008331AF23823121002808B8002908B5
:10062800B9002A08BA004E08BB004F08BC005008A1
:10063800BD008031D520823121003808CE0039082C
:10064800CF003A08D0009B30A8000C30A900C63073
:10065800AA004E08AB004F08AC005008AD0083312B
:10066800AF23823121002808B8002908B9002A08D8
:10067800BA00A530A8000C30A9004630AA004B08E3
:10068800AB004C08AC004D08AD008331AF2382317C
:1006980021002808BB002908BC002A08BD008031B9
:1006A800D520823121003808D1003908D2003A0813
:1006B800D3000030A000A030A1004030A2005108B3
:1006C800A3005208A4005308A50087318F27823160
:1006D8000318752B00302100D100A030D200403023
:1006E800D30021005108A0005208A1005308A2001D
:1006F8000030A3000030A4000030A50087318F2708
:10070800823103188E2B00302100D1000030D20036
:100718000030D30021005108A0005208A10053085E
:10072800A2008531C0258231210020088F31C927D8
:100738008231FF3A20008F0006302100C7001330B5
:10074800C600B130C500C50BA72BC60BA72BC70B1E
:10075800A72BAE2BDA2A21002808AE002908AF0003
:100768002A08B00003102F0D300DB1003108B20077
:10077800B208031DC62B0030A8000030A9000030C5
:10078800AA0008002B08AE002C08AF002D08B00006
:1007980003102F0D300DB1003108B700B708031D45
:1007A800DC2B0030A8000030A9000030AA000800A7
:1007B80037087B3EAE002E08B2072808AE0029088D
:1007C800AF002A08B0001030B036AF0CAE0C890B61
:1007D800E82B2E08B1003108B7002B08AE002C0812
:1007E800AF002D08B0001030B036AF0CAE0C890B3E
:1007F800F82B2E08B1003108B7068030AE002E085D
:10080800B705A917AC17FF30AB05FF30AC050030B2
:10081800AD050030B3000030B4000030B50007303B
:10082800AE002E08B600281C1F2C2B08B3072C0876
:10083800B43D2D08B53D0130AA36A90CA80C890B8A
:10084800202C0130AB35AC0DAD0D890B262C0130B9
:10085800B602031D172C0930AE002E08B600281C5E
:100868003B2C2B08B3072C08B43D2D08B53D0130AF
:10087800AA36A90CA80C890B3C2C0130B536B40C4F
:10088800B30C890B422C0130B602031D332C3308FC
:10089800A0003408A1003508A2003208AE002E08D6
:1008A800A3003708AF002F08A4008631CE26210008
:1008B8002008A8002108A9002208AA000800200092
:1008C8004508CB004608CC004708CD0003104C0D66
:1008D8004D0DCE004E08CF00CF08031D7A2C0030F6
:1008E800C5000030C6000030C70008004808CB002B
:1008F8004908CC004A08CD0003104C0D4D0DCE0020
:100908004E08D400D408031D902C0030C5000030D8
:10091800C6000030C700080054087B3ECB004B08D7
:10092800CF074508CB004608CC004708CD0010305B
:10093800CD36CC0CCB0C890B9C2C4B08CE004E082A
:10094800D4004808CB004908CC004A08CD00103034
:10095800CD36CC0CCB0C890BAC2C4B08CE004E08FA
:10096800D4068030CB004B08D405C617C917FF3012
:10097800C805FF30C9050030CA050030D000003076
:10098800D1000030D2000730CB004B08D300451C03
:10099800D32C4808D0074908D13D4A08D23D013038
:1009A800C736C60CC50C890BD42C0130C835C90D07
:1009B800CA0D890BDA2C0130D302031DCB2C093068
:1009C800CB004B08D300451CEF2C4808D00749083A
:1009D800D13D4A08D23D0130C736C60CC50C890B3B
:1009E800F02C0130D236D10CD00C890BF62C01300A
:1009F800D302031DE72C5008F0005108F1005208FB
:100A0800F2004F08CB004B08F3005408CC004C0808
:100A1800F40087312F2770082000C5007108C60030
:100A28007208C700080020003808BB003908BC005D
:100A38003A08BD0003103C0D3D0DBE003E08C30042
:100A4800C308031D2E2D0030B5000030B60000305D
:100A5800B70008003508BB003608BC003708BD00E1
:100A680003103C0D3D0DBE003E08C400C408031D24
:100A7800442D0030B5000030B6000030B700080043
:100A88000030C0000030C1000030C2008930440787
:100A9800BB003B08C3023808BB003908BC003A0851
:100AA800BD001030BD36BC0CBB0C890B562D3B0865
:100AB800BE003E08C4003508BB003608BC00370835
:100AC800BD001030BD36BC0CBB0C890B662D3B0835
:100AD800BE003E08C4068030BB003B08C405B917F9
:100AE800FF30B805FF30B9050030BA05B617FF303A
:100AF800B505FF30B6050030B7051830BB003B0818
:100B0800BF000130C035C10DC20D890B862D3708D5
:100B18003A02031D952D36083902031D952D350817
:100B28003802031C9E2D3508B8023608B93B370831
:100B3800BA3B40140130B835B90DBA0D890B9F2D59
:100B48000130BF02031D852D4008F0004108F10067
:100B58004208F2004308BB003B08F3004408BC000D
:100B68003C08F40087312F2770082000B500710871
:100B7800B6007208B700080021002008A400210868
:100B8800A5002208A6000310250D260DA70027089A
:100B9800AD00AD08031DD92D0030A3000030A20020
:100BA8000030A1000030A00008002008A40021089F
:100BB800A5002208A6001730A636A50CA40C890BA0
:100BC800E02D2408A7002708A800A117FF30A005DA
:100BD800FF30A1050030A2052008A9002108AA00BD
:100BE8002208AB00AC018E30AD02AD1F172E2D08C8
:100BF800803A8F3E0318092E0030A3000030A2006F
:100C08000030A1000030A00008000130AC36AB0C69
:100C1800AA0CA90C890B0A2E0130A4002408AD07E0
:100C28000319302E092E18302D02031C2D2E0030EA
:100C3800A3000030A2000030A1000030A00008008E
:100C48000130A935AA0DAB0DAC0D890B252E01304D
:100C5800AD02AD08031D242E280803193E2EA9094C
:100C6800AA09AB09AC09A90A0319AA0A0319AB0A0C
:100C78000319AC0A2C08A3002B08A2002A08A1001B
:100C88002908A000080020002008A4002108A500C9
:100C98002208A6000310250D260DA7002708AD0081
:100CA800AD08031D602E0030A3000030A200003004
:100CB800A1000030A00008002008A4002108A50019
:100CC8002208A6001730A636A50CA40C890B672E9F
:100CD8002408A7002708A800A117FF30A005FF30A7
:100CE800A1050030A2052008A9002108AA002208B1
:100CF800AB00AC018E30AD02AD1F9E2E2D08803AA0
:100D08008F3E0318902E0030A3000030A200003060
:100D1800A1000030A00008000130AC36AB0CAA0CD2
:100D2800A90C890B912E0130A4002408AD070319E2
:100D3800B72E902E18302D02031CB42E0030A300BD
:100D48000030A2000030A1000030A00008000130EF
:100D5800A935AA0DAB0DAC0D890BAC2E0130AD0237
:100D6800AD08031DAB2E28080319C52EA909AA0929
:100D7800AB09AC09A90A0319AA0A0319AB0A031992
:100D8800AC0A2C08A3002B08A2002A08A1002908F5
:100D9800A0000800210023080319D72E22082104E7
:100DA8002004031DE82E0030A0000030A100003010
:100DB800A20008000130A5002508A3070130A236CB
:100DC800A10CA00C890BE32EFE3022050319012F7C
:100DD800DE2E0130A5002508A3070130A00700304A
:100DE80003180130A107003003180130A2070130B1
:100DF800A236A10CA00C890BFC2EFF30220503198A
:100E08000E2FED2E0130A3020130A035A10DA20D49
:100E1800890B092FA11F062F2318182FFF30A005B3
:100E28007F30A105FF30A2050310A30C2308A500FD
:100E3800A601A7011030A535A60DA70D890B1F2FF8
:100E48002508A0042608A1042708A20424080319D9
:100E58000800A217080073080319372F72087104D5
:100E68007004031D482F0030F0000030F1000030FE
:100E7800F20008000130F5007508F3070130F2367A
:100E8800F10CF00C890B432FFE3072050319612F0A
:100E98003E2F0130F5007508F3070130F0070030E8
:100EA80003180130F107003003180130F207013050
:100EB800F236F10CF00C890B5C2FFF307205031928
:100EC8006E2F4D2F0130F3020130F035F10DF20D88
:100ED800890B692FF11F662F7318782FFF30F005E3
:100EE8007F30F105FF30F2050310F30C7308F500AD
:100EF800F601F7011030F535F60DF70D890B7F2F48
:100F08007508F0047608F1047708F20474080319E8
:100F18000800F21708002100A21FA62F2009A6002A
:100F28002109A7002209A800A60A0319A70A03197C
:100F3800A80A00302607A0000030273DA100803015
:100F4800283DA200A51FBC2F2309A6002409A7003D
:100F58002509A800A60A0319A70A0319A80A003038
:100F68002607A3000030273DA4008030283DA500B7
:100F78008030A2068030A50625082202031D08003D
:100F880024082102031D0800230820020800FF305E
:100F980023008C00FF3021008C008F0120008C0181
:100FA80021008D0123008D0120008D018F0121007A
:100FB8008F0123008F0121009E131E179E161E16F7
:100FC8001E119E101E101D141D139D121D129D1121
:100FD8001D118B170B171117200011130B118B16EE
:100FE8002100951295119D140800FE0012001E00A4
:060FF800FE0BFA2F00348D
:101EBA007A0879047804031908008030FA060800C1
:101ECA002100220821042004031908008030A206F8
:101EDA000800C034F934A434B034993492348234CA
:101EEA00F834803490342100951295111514951404
:101EFA001515200095018B178B160800F200720841
:101F0A005F3E860087017008003A003003190130ED
:101F1A00F1000630F135FF3E031D8F2F71350106A2
:101F2A0020008D000800E901EA01EB01EC01210023
:101F3A00D401D501D6016E3084008F3085005F3020
:101F4A008600003087000A308731F9272000823165
:101F5A00C12AFB007B082000B100B201B30131089D
:101F6A00F0003208F1003308F2008E30B400340871
:101F7A00F300F40187312F2770082000AE007108A2
:101F8A00AF007208B00008002100A30023080F392F
:101F9A00A0000430A035890BCF2F2308A1000430FC
:101FAA00A136890BD52F21080F392004A200220857
:101FBA00A30023083339A0000230A035890BE22F91
:101FCA002308A1000230A136890BE82F21083339F2
:101FDA002004A2002208A30023085539A0000130DA
:101FEA00A035890BF52F233655392004A100210885
:061FFA00A300230808000B
:020000040001F9
:04000E00E2C9FFDC68
:00000001FF
