:0400000080315328D0
:100008007E14803120007F08C500111F4E2811136F
:100018000030B000A030B1004030B200C030A000C5
:100028007F30A1004430A20021001B082000C0003E
:10003800C10121001C082000C200C3014208C300FE
:10004800C20140084204F80041084304F900853120
:100058002725803178082000A3007908A4007A08B1
:10006800A5008231BE22803120002008B30021087B
:10007800B4002208B50082310A222000300821008D
:10008800DA00200031082100DB00200032082100BE
:10009800DC009D1420004508FF007E100900803117
:1000A80055282000C601C7012100DA01DB01DC0167
:1000B8007E1020008331EE2B21002808AE0029088D
:1000C800AF002A08B00003102F0D300DB100310821
:1000D800B4002B08AE002C08AF002D08B0000310A8
:1000E8002F0D300DB1003108B300340803198828EA
:1000F8003308340203188F283403FF3A3307AE005D
:1001080019302E02031C8F282B08A8002C08A900E0
:100118002D08AA0008003308031908003408330220
:1001280003189E283303FF3A3407AE0019302E0215
:10013800031808000630AE002E08B200AA1BB2173A
:10014800AD1B3217A917FF30A805FF30A9050030ED
:10015800AA05AC17FF30AB05FF30AC050030AD0584
:10016800330834020318DA280130AB35AC0DAD0D75
:10017800890BB9280130B302330834060319D5288E
:100188000130B202320807390319D528B8280130DE
:10019800AA36A90CA80C890BCC280130AE002E0871
:1001A800B407340833060319FF28CB283408330270
:1001B8000318FF280130A835A90DAA0D890BDF28DF
:1001C8000130B402330834060319FB280130B202A7
:1001D800320807390319FB28DE280130AD36AC0C8C
:1001E800AB0C890BF2280130AE002E08B307340897
:1001F8003306031DF128B21F1129FF30A806FF306E
:10020800A906FF30AA060130A807003003180130FC
:10021800A907003003180130AA07321F2329FF302D
:10022800AB06FF30AC06FF30AD060130AB0700303F
:1002380003180130AC07003003180130AD07B201D4
:100248002808AB072908AC3D2A08AD3DAD1F3E295B
:10025800FF30AB06FF30AC06FF30AD060130AB0710
:10026800003003180130AC07003003180130AD0727
:10027800B201B20A2B08A0002C08A1002D08A20088
:100288003408AE002E08A3003208AF002F08A400DF
:1002980084315E2421002008A8002108A900220832
:1002A800AA00080021003508BB003608BC00370842
:1002B800BD0003103C0D3D0DBE003E08BF003F08C9
:1002C800031D6D290030B5000030B6000030B700BE
:1002D80008003808BB003908BC003A08BD00031004
:1002E8003C0D3D0DBE003E08C4004408031D832993
:1002F8000030B5000030B6000030B70008004408F0
:100308007B3EBB003B08BF073508BB003608BC0076
:100318003708BD001030BD36BC0CBB0C890B8F29CB
:100328003B08BE003E08C4003808BB003908BC00C2
:100338003A08BD001030BD36BC0CBB0C890B9F2998
:100348003B08BE003E08C4068030BB003B08C4051D
:10035800B617B917FF30B805FF30B9050030BA0530
:100368000030C0000030C1000030C2000730BB00C0
:100378003B08C300351CC6293808C0073908C13DE9
:100388003A08C23D0130B736B60CB50C890BC729FF
:100398000130B835B90DBA0D890BCD290130C3022A
:1003A800031DBE290930BB003B08C300351CE229E8
:1003B8003808C0073908C13D3A08C23D0130B73690
:1003C800B60CB50C890BE3290130C236C10CC00C40
:1003D800890BE9290130C302031DDA294008A0006E
:1003E8004108A1004208A2003F08BB003B08A30047
:1003F8004408BC003C08A40084315E242100200885
:10040800B5002108B6002208B7000800200030080F
:10041800B6003108B7003208B8000310370D380DA0
:10042800B9003908BA003A08031D212A0030B00083
:100438000030B1000030B20008003308B6003408BC
:10044800B7003508B8000310370D380DB900390862
:10045800BF003F08031D372A0030B0000030B1004C
:100468000030B20008003F087B3EB6003608BA07E5
:100478003008B6003108B7003208B8001030B83676
:10048800B70CB60C890B432A3608B9003908BF00E7
:100498003308B6003408B7003508B8001030B8364D
:1004A800B70CB60C890B532A3608B9003908BF06B1
:1004B8008030B6003608BF05B117B417FF30B30552
:1004C800FF30B4050030B5050030BB000030BC007B
:1004D8000030BD000730B6003608BE00301C7A2A4E
:1004E8003308BB073408BC3D3508BD3D0130B23682
:1004F800B10CB00C890B7B2A0130B335B40DB50DA6
:10050800890B812A0130BE02031D722A0930B60008
:100518003608BE00301C962A3308BB073408BC3D99
:100528003508BD3D0130B236B10CB00C890B972AA5
:100538000130BD36BC0CBB0C890B9D2A0130BE02B4
:10054800031D8E2A3B08F0003C08F1003D08F2002C
:100558003A08B6003608F3003F08B7003708F40039
:100568008431C32470082000B0007108B1007208FB
:10057800B200080020002308A6002408A7002508C8
:10058800A8000310270D280DA9002908AE002E0881
:10059800031DD52A0030A0000030A1000030A200C1
:1005A80008002008A6002108A7002208A8000310B8
:1005B800270D280DA9002908AF002F08031DEB2AD5
:1005C8000030A0000030A1000030A2000800003078
:1005D800AB000030AC000030AD0089302F07A6001A
:1005E8002608AE022308A6002408A7002508A800AC
:1005F8001030A836A70CA60C890BFD2A2608A900DE
:100608002908AF002008A6002108A7002208A80092
:100618001030A836A70CA60C890B0D2B2608A900AC
:100628002908AF068030A6002608AF05A417FF30BA
:10063800A305FF30A4050030A505A117FF30A005CC
:10064800FF30A1050030A2051830A6002608AA0030
:100658000130AB35AC0DAD0D890B2D2B22082502D1
:10066800031D3C2B21082402031D3C2B20082302D8
:10067800031C452B2008A3022108A43B2208A53B04
:100688002B140130A335A40DA50D890B462B013081
:10069800AA02031D2C2B2B08F0002C08F1002D08B2
:1006A800F2002E08A6002608F3002F08A700270846
:1006B800F4008431C32470082000A0007108A10050
:1006C8007208A200080021004508C9004608CA00AF
:1006D8004708CB0003104A0D4B0DCC004C08D20044
:1006E8005208031D802B0030C8000030C7000030BE
:1006F800C6000030C50008004508C9004608CA0001
:100708004708CB001730CB36CA0CC90C890B872B8E
:100718004908CC004C08CD00C617FF30C505FF308E
:10072800C6050030C7054508CE004608CF00470873
:10073800D000D1018E30D202D21FBE2B5208803A8F
:100748008F3E0318B02B0030C8000030C7000030BF
:10075800C6000030C50008000130D136D00CCF0CDF
:10076800CE0C890BB12B0130C9004908D2070319F7
:10077800D72BB02B18305202031CD42B0030C800E2
:100788000030C7000030C6000030C5000800013046
:10079800CE35CF0DD00DD10D890BCC2B0130D20227
:1007A8005208031DCB2B4D080319E52BCE09CF09A1
:1007B800D009D109CE0A0319CF0A0319D00A03199F
:1007C800D10A5108C8005008C7004F08C6004E0893
:1007D800C50008008531472583312100D901D90A90
:1007E80020008D012100D701D80120000D1421001F
:1007F8005A08B8005B08B9005C08BA004030B50078
:100808009C30B6004630B700813156218331210033
:100818003508C5003608C6003708C7008331672386
:10082800833121004508D3004608D4004708D50085
:100838004808D60020000D1021005A08A0005B08C7
:10084800A1005C08A20085315125833121002008D0
:10085800AB002108AC002208AD000030A8008030B1
:10086800A9003F30AA008031602083312100280888
:10087800B8002908B9002A08BA004030B5009C30F1
:10088800B6004630B7008131562183312100350842
:10089800C5003608C6003708C7008331672383318F
:1008A80021004508D3004608D4004708D500480869
:1008B800D600F92B210023080319672C22082104EC
:1008C8002004031D782C0030A0000030A100003067
:1008D800A20008000130A5002508A3070130A236B0
:1008E800A10CA00C890B732CFE3022050319912C46
:1008F8006E2C0130A5002508A3070130A0070030A1
:1009080003180130A107003003180130A207013095
:10091800A236A10CA00C890B8C2CFF3022050319E0
:100928009E2C7D2C0130A3020130A035A10DA20D13
:10093800890B992CA11BA42C023023020318962C96
:100948002318AC2CFF30A0057F30A105FF30A2058D
:100958000310A30C2308A500A601A7011030A53594
:10096800A60DA70D890BB32C2508A0042608A10401
:100978002708A204240803190800A217080073080E
:100988000319CB2C720871047004031DDC2C003091
:10099800F0000030F1000030F20008000130F500EE
:1009A8007508F3070130F236F10CF00C890BD72CDF
:1009B800FE3072050319F52CD22C0130F5007508AC
:1009C800F3070130F007003003180130F107003059
:1009D80003180130F2070130F236F10CF00C890BE4
:1009E800F02CFF3072050319022DE12C0130F302BF
:1009F8000130F035F10DF20D890BFD2CF11B082D9E
:100A0800023073020318FA2C7318102DFF30F0050A
:100A18007F30F105FF30F2050310F30C7308F50081
:100A2800F601F7011030F535F60DF70D890B172D86
:100A38007508F0047608F1047708F20474080319BD
:100A48000800F2170800FD01F91F312DF809F9090E
:100A5800F80A0319F90AFD01FD0A7808F000790877
:100A6800F100F2018E30FB007B08F3007D08FC00EA
:100A78007C08F4008431C3247008F8007108F90078
:100A88007208FA000800823021009E00C1309D00E3
:100A98008B170B1711179D14080021002208210439
:0C0AA8002004031908008030A20608009A
:020000040001F9
:04000E00E2C9FFDC68
:00000001FF
