:0400000080311F2804
:100008007E14803120007F08F4002100111F1A2877
:100018002000111F1A2821001C0880312920FF3ACE
:1000280020008F0021009D14200011137408200067
:10003800FF007E10090080312128F601F701F80140
:10004800F9017E10200080318F28F30073080F39E2
:10005800F0000430F035890B2E287308F1000430C5
:10006800F136890B342871080F397004F2007208D0
:10007800F30073083339F0000230F035890B41285A
:100088007308F1000230F136890B472871083339BB
:100098007004F2007208F30073085539F00001305B
:1000A800F035890B5428733655397004F1007108FE
:1000B800F30073080800FF3023008C00FF30210094
:1000C8008C008F0120008C0121008D0123008D01FF
:1000D80020008D018F0121008F0123008F01210055
:1000E8009E131E179E161E161E119E101E101D14FE
:1000F8001D139D121D129D111D1108008B170B1742
:10010800210011172000111321009D140B118B16CB
:1001180095129511080080315F208031803182204E
:080128008031F501F50A97286A
:020000040001F9
:04000E00E2C9FFDC68
:00000001FF
